:10000000D82000208D3A00000B0D0000830D000069
:10001000031F0000832300003B2A000000000000B3
:100020000000000000000000000000009F320000FF
:100030008536000000000000EF370000FB370000AD
:10004000BD3B0000BF3B0000A91E00007D1E00005C
:10005000C13B0000C33B0000C7240000C53B0000BB
:10006000C73B0000C93B0000CB3B0000CD3B00007C
:10007000CF3B0000D13B0000D33B0000D53B00004C
:10008000D73B000009130000D93B0000DB3B000018
:1000900035130000DD3B0000DF3B0000E13B0000CA
:1000A000E33B0000E53B0000E73B0000E93B0000CC
:1000B000EB3B0000ED3B00000000000000000000F2
:1000C000EF3B0000F13B0000F33B0000F53B00007C
:1000D000F73B0000F93B0000FB3B00000000000084
:1000E0000000000000000000000000000000000010
:1000F0000000000000000000000000000000000000
:1001000000000000000000000000000000000000EF
:1001100000000000000000000000000000000000DF
:1001200000000000000000000000000000000000CF
:1001300000000000000000000000000000000000BF
:1001400000000000000000000000000000000000AF
:10015000000000000000000000000000000000009F
:10016000000000000000000000000000000000008F
:10017000000000000000000000000000000000007F
:10018000000000000000000000000000000000006F
:10019000000000000000000000000000000000005F
:1001A000000000000000000000000000000000004F
:1001B000000000000000000000000000000000003F
:1001C000000000000000000000000000000000002F
:1001D000000000000000000000000000000000001F
:1001E000000000000000000000000000000000000F
:1001F00000000000000000000000000000000000FF
:1002000080B502681268904701BD80B501684968F1
:10021000884701BD80B501688968884701BD0172C2
:100220007047007A7047012141727047407A7047E9
:1002300080B5FF20DFF8881788600020DFF880177E
:1002400008600020DFF8781748600020DFF870179A
:10025000C1F818040020DFF86817C1F81404002062
:10026000DFF85C1781F82004DFF8580700F0C0FBC6
:10027000002810D1DFF85007DFF85017401AC008E7
:10028000002105E0DFF8482712EB81021180491CAC
:100290008142F7D3002002BDDFF82C07DFF82C17CE
:1002A000401AC008704710B50400C9B2002913D025
:1002B000FFF7F2FF002100E0491C81420AD2DFF87B
:1002C000102712EB8102528823689A42F4D12160F0
:1002D000002002E0052000E0002010BD01B5C9B2F9
:1002E0006846FFF7E0FF002806D1DFF8E80600992E
:1002F00010EBC100006800E0002002BDDFF8D4264A
:1003000012EBC000C9B2012906D00DD3032907D0D2
:1003100004D3042906D007E0022006E0042004E00C
:10032000007902E0407900E00020C0B2704702008E
:100330000020137813F0030F04D01368C3F3800375
:10034000002B27D01068C0F38000002817D0107849
:1003500010F00300012802D0022808D00EE008683F
:100360001268C2F38312921C1018086011E008682A
:100370001268920D921C101808600AE009E00868E3
:1003800013681268C2F3891212EB9352521C1018B0
:1003900008600120C0B2704730B585B00024DFF896
:1003A000380600F024FCDFF8340600F020FCDFF80B
:1003B000100640680090DFF808068568DFF8000640
:1003C0000099294010EB81000C3006E0DFF8F005C1
:1003D0000099294010EB81000C306946FFF7A7FF18
:1003E0000028F3D100200DE0DFF8D415009A2A4050
:1003F00011EB8201C96801AA42F820100099491C3A
:100400000091401C0228EFD3019810F0030001284E
:100410000BD0022812D1BDF80A4000980199890D2D
:10042000C91C10EB9100009008E0BDF80A4000984C
:100430000199C1F3831108180090FFE7DFF89C05CC
:1004400000F0DAFB002803D00098DFF8741548604C
:10045000A4B2200005B030BD80B50021DFF88005D2
:1004600000F082FB80F3100002BD2DE9F041040092
:100470000D0016001F005FEA1448FFF7EDFF069914
:10048000DFF83C257B1C0B4012EB830258EA00404E
:10049000D060DFF82C05394010EB81000C3001688A
:1004A00064F3C5010160016866F3891101600168A8
:1004B00065F39F2101600121026861F3010202607E
:1004C000016831F004010160BDE8F0812DE9F041DF
:1004D000060088461700B41C0125002000F0A8FB88
:1004E000DFF8DC040068C8F80000DFF8D404806896
:1004F000401CDFF8CC140968401ADFF8C4144968BE
:10050000081817E00121DFF8D80400F055FBFFF7C9
:1005100043FF0100DFF8C80400F04EFBDFF8A00441
:100520008068401CDFF898140968401ADFF89014BE
:1005300049680818A042E5D3EDB2002D26D000206E
:10054000FFB2002F07D0012161F3010050F0040039
:1005500066F3891006E0022161F3010050F0040007
:1005600066F39F50DFF85814DFF854241268DFF860
:1005700050349B681A4011EB82010C310860DFF89F
:10058000400400682018DFF838140860002000F0EC
:1005900053FB2800C0B2BDE8F0812DE9FC41040006
:1005A0000D0016001F00DFF81804D0F808800122A3
:1005B00001A93800FFF78AFF002818D00198801C95
:1005C00000210AE0DFF8F82318EA000312EB8302A7
:1005D00056F82130D360401C491CB942F2D3CDF803
:1005E0000080019B3A0029002000FFF73EFFDFF862
:1005F000D00390F82004002803D000F041F8002830
:10060000FBD1BDE8F38180B500230022FFF7C5FFD1
:1006100001BD80B5009201236A46FFF7BEFF01BD10
:1006200000B583B00092019302236A46FFF7B5FF3D
:1006300007BDE0B500920193049A029203236A4633
:10064000FFF7ABFF07BD00B585B000920193069A96
:100650000292079A0392089A049205236A46FFF7CA
:100660009CFF05B000BDDFF858034068DFF8501369
:100670000968884201D1012000E00020C0B2704723
:100680002DE9F04385B0FFF7EEFF002801D00020F0
:100690003EE10020DFF82813C1F81804BFF34F8FA4
:1006A000DFF81C0340680090C5488668C44800997C
:1006B000314010EB81000C3000250024002205E0C1
:1006C000BF480099314010EB81000C306946FFF7BC
:1006D0002EFE00280AD00098B94909688842EFD355
:1006E000B7480068B6494860002011E100270CE0D7
:1006F000B3480099314010EB8100C06801A941F86E
:1007000027000098401C00907F1C022FF0D3019816
:1007100010F0030002286FD10198870D0198800D19
:10072000502803DA01985FEA905801E05FF0500822
:10073000019868F39F50019018F108010198C0F3E7
:10074000C202A04800F058F90500002D00F0968084
:10075000280000F09DF92300082201A9280000F0DC
:10076000F5F90834701C00993140401A800040456A
:1007700030D2002806D09249009A324011EB820113
:100780000C3100E09749002801D0060000E0464601
:10079000002802D0DFF84C9201E05FF00009002849
:1007A00002D0B8EB000801E05FF000082300F6B2C9
:1007B0003200280000F0CAF954FA86F4B9F1000FAB
:1007C00014D023005FFA88F842464946280000F01A
:1007D000BDF90BE07A480099314010EB810010F12F
:1007E0000C0123004246280000F0B0F90098F91CE3
:1007F00010EB9100009041E0019810F003000128F7
:100800003CD10198C0F38310062803DA0198C0F3A5
:10081000831000E00620019960F38911019101988D
:10082000C0F38310801C0199C1F3C20281006548A6
:1008300000F0E2F80500002D20D0280000F028F993
:100840002300082201A9280000F080F908340027BD
:100850000FE00098411C00912300042258493040C9
:1008600011EB800010F10C01280000F06FF9241D3D
:100870007F1C0198C0F383108742EAD3002D2ED04D
:100880004F48D0F810444E48D0F81804002812D031
:10089000280000F003F934E000262000FFF7C6FC32
:1008A000002800D00126F6B2002E03D02900200037
:1008B000FFF7A6FC6468002CEED1280000F0EEF8EB
:1008C000002000F0B5F93E48D0F81804002802D105
:1008D00000983B494860002000F0AEF911E038482C
:1008E000D0F8104403E02000FFF794FC6468002C6B
:1008F000F9D13D493D480088000450F00200FFF75F
:1009000082FEFFF7B0FE10F0010090F00100C0B2CF
:1009100005B0BDE8F08370B5002400E0641C0A2C2B
:1009200012DA2748D0F81054012600E06D68002D37
:1009300005D02800FFF775FCA042F7D10026F6B2DB
:10094000002EEBD0200001E05FF0FF3070BD38B525
:100950000500FFF7E0FF040014F1010F01D12000B2
:100960001AE020000100C9B22800FFF758FC144823
:10097000D0F81004002805D11148C0F81054002008
:10098000686008E00E48D0F81004406868600C48C1
:10099000D0F810044560200032BD10B50848D0F8EA
:1009A00010440120064981F8200406E02000FFF7EA
:1009B0003AFC2000FFF729FC6468002CF6D110BD3A
:1009C000D820002028390000B8340000803400000E
:1009D000BC00002080340000F0240020EC24002023
:1009E000F4240020E42000207C390000C000002016
:1009F00080B500F032F902BD2DE9F0410400A08A73
:100A0000061F7018C01CB0FBF6F7200000F042F97A
:100A10000500002D01D100201FE0002028710120D9
:100A20006871EE802E00FFB2B7F101083460002734
:100A300006E06979491C69713060046006007F1C1A
:100A4000474509D2200000F025F90028F1D12800FF
:100A500000F005F8002000E02800BDE8F081F8B5BE
:100A600044790100E4B2621E002501E009686D1CB2
:100A70009542FBD30F680100002505E00E683800A1
:100A800000F02FF931006D1CE4B2A542F6D3F1BDA0
:100A900080B50121001D00F08FF801BD10B582B0B6
:100AA00004000121201D00F095F8009068460078B0
:100AB000002802D12000FFF7D2FF13BD2DE9F84F27
:100AC0000E001700B0F806800400181DB0FBF8F106
:100AD000181DB0FBF8F208FB1200FA1818EB02021E
:100AE000D21CB2FBF8F201E02468491E0029FBD1B8
:100AF0005FF00009B8EB000B5F4502D2BB460A9DD0
:100B000001E0FCE7BB46002F1ED0EDB2002D08D05F
:100B10005A460019011D19EB060A504600F0F6F876
:100B200008E05A4619EB0601001910F1040A504674
:100B300000F0ECF800202468B7EB0B071BEB090969
:100B40004745DFD3C346DEE7BDE8F18F10B582B07D
:100B500000240094FFF7B2FF13BD10B582B001244A
:100B60000094FFF7ABFF13BD10B450E8002F0B4605
:100B700040E8003494F0000FF7D1100010BC70472B
:100B800010B450E8003F43EA010240E8002494F02A
:100B9000000FF6D1100010BC7047000010B450E8F0
:100BA000002F02EA010340E8003494F0000FF6D170
:100BB000100010BC7047000010B450E8003F03EB79
:100BC000010240E8002494F0000FF6D1100010BCA0
:100BD0007047000010B450E8003FA3EB010240E86A
:100BE000002494F0000FF6D1100010BC704780B5BF
:100BF0000121FFF7C5FF02BD80B50021FFF7CEFF41
:100C000002BD0B0072B609480068401C0749086025
:100C1000704706480068401E0449086003480068A1
:100C2000002800D162B6704700000000702A002042
:100C300080B5FFF7E7FF01BD80B5FFF7EAFF01BD13
:100C4000C268C9B2808A00FB01207047C268891A55
:100C5000808AB1FBF0F0C0B2704710B4002801D117
:100C60000E2015E081684268891A426803681A609C
:100C700005E002681268531C0468236011700A00C2
:100C8000511ED2B2002AF4D1002100680171002067
:100C900010BC704738B5040000250020FFF7C8FFDE
:100CA000606821680968884216D220680068401E82
:100CB000216808602068006801782000FFF7C0FF05
:100CC0000500A06821680968401A21680979C0B246
:100CD000814201D2216808710020FFF7ADFF280092
:100CE00032BD70B504000D000020FFF7A1FF2068A1
:100CF0000668701C2168086029002000FFF7A6FF25
:100D000030700020FFF798FF70BDFEE762B38B07DD
:100D100008D0521E11F8013B00F8013B00F024807E
:100D20008B07F6D1830740F0208000BF103A07D32D
:100D300030B4B1E83810103AA0E83810F9D230BC1D
:100D4000530724BFB1E80810A0E8081044BF51F8C9
:100D5000043B40F8043BD20724BF31F8022B20F8B3
:100D6000022B44BF0B7803707047083A07D3B1E8F1
:100D70000810083A40F8043B40F804CBF7D2530778
:100D8000E4E7FEE7012110F01F029140DFF8AC25F7
:100D900040B2400942F820107047012110F01F02B4
:100DA0009140DFF89C2540B2400942F8201070477E
:100DB000012110F01F029140DFF8882540B2400960
:100DC00042F820107047012110F01F029140DFF817
:100DD000782540B2400942F82010704780B50028BD
:100DE00006D0DFF8681551F00101402250438847D2
:100DF00001BD80B55FF48030DFF8541508605FF402
:100E00008030DFF8501508601120FFF7DCFF11205B
:100E1000FFF7B8FF0120DFF8401508602F20FFF72B
:100E2000DDFF0120DFF83415087001BD80B5112009
:100E3000FFF7B3FF5FF48030DFF8241508605FF43C
:100E40008030DFF8201508600120DFF81C150860ED
:100E50002F20FFF7C3FF0120DFF8101508600020E6
:100E6000DFF80C1508602F20FFF7B8FF0020DFF82F
:100E7000EC14087001BDDFF8FC0400687047401AEC
:100E80000002000A7047DFF8F0140860704710B4E1
:100E9000DFF8E8140968002903D1DFF8E0140860DE
:100EA00031E0DFF8D814096809680268914211D36B
:100EB000DFF8C814096809680268891ADFF8BC24D9
:100EC00012681160DFF8B4140968C161DFF8AC146E
:100ED000086018E00368DFF8A4140968DFF89C24B0
:100EE000126803E011685B1A1100D269002A02D06F
:100EF00014689C42F6D3002A02D01468E41A1460E5
:100F00000360C261C86110BC704770B5DFF86C1433
:100F10000C68DFF868140D682E0001E03500F669F2
:100F2000002E01D08642F9D1002E01D100202EE002
:100F3000B5421AD1DFF844040068C069DFF83C14F8
:100F40000860DFF83804006800280ED10120DFF8BF
:100F50001C1408600020DFF8181408600120DFF876
:100F6000201408702F20FFF739FF3068F169E9611C
:100F7000EE69002E02D0316840183060DFF8FC03C3
:100F80000068844201D0012000E00020C0B270BDA2
:100F900080B51120FFF70CFF01BD80B51420FFF7CD
:100FA00007FF01BD80B5010088694969884701BD17
:100FB00070B5DFF8C803006800283FD00024FFF7B1
:100FC0005AFFDFF8AC130968FFF759FF0500DFF897
:100FD000AC0306680CE030682D1A30680419300044
:100FE000F669017C002903D000210174FFF7DAFFC4
:100FF000002E02D030688542EDD2DFF888030078F9
:10100000DFF88413097888420FD1DFF87C03007879
:10101000401CDFF874130870DFF86C0300780228B6
:1010200003D10020DFF860130870DFF86003DFF8F9
:101030005813097840F82140FFF7AFFF70BDDFF883
:1010400044130978DFF840231278914229D0DFF861
:1010500034130978491CDFF82C231170DFF82413AE
:101060000978022903D10021DFF818231170DFF875
:101070001C13DFF81023127851F822100160DFF8FA
:10108000F012096800684018DFF8E4120860DFF821
:10109000E00200680002000ADFF8D41208600120B4
:1010A00002E00021016000207047F0B4002418E045
:1010B0001D68401B1D682C1900251D60DFF8BC52FF
:1010C0002D68DE69DFF8B4723E60DE68002E08D05D
:1010D00066183602360A5E60DE689E601668DE615B
:1010E0001560DFF898321B68002B08D0DFF88C32CF
:1010F0001B681D68A842DBD21968081A1860F0BC8A
:101100007047F8B504000025DFF8700206682BE090
:10111000DFF87C02DFF878120978182202FB010060
:10112000001DDFF86C120978491CDFF86422117089
:10113000DFF85C120978DFF858229278914203D1E7
:101140000021DFF84C22117047680178012929D06D
:101150004FD3032920D04CD24068FFF7D6FE002899
:1011600000D0012500203874002C07D1DFF82002C0
:101170000078DFF81C124978884257D0002CC7D07D
:101180002700FC6920E0DFF8F40100680021017409
:10119000C069DFF8E8110860DFF8E00100680028A6
:1011A000F1D1E1E7397C002924D181687960C168F7
:1011B000B9600169F9604069B861DFF8C40100787D
:1011C000002801D0002078607868DFF8A411096851
:1011D000401A0002000ADFF8BC1188420BD2DFF887
:1011E000900101687868FFF74AFEB968081838600E
:1011F00010E0B9E7B8E77968DFF874010068FFF735
:101200003EFEB968884203D2B968081A386001E026
:1012100000203860002078600020B8600120387419
:101220000020F8613800FFF732FE9DE7EDB2002D97
:1012300004D1DFF848010068B04201D0012000E08D
:101240000020C0B2F2BDF8B54C480068002834D088
:101250004A4800680568FFF70EFE04004448066827
:1012600031002000FFF70BFEC71C3C480078002827
:1012700001D1FFF7BEFDAF4200D33D00AE193602EB
:10128000360A3000FFF7FFFDFFF7F5FD05002100EE
:101290003000FFF7F4FD060021002800FFF7EFFD06
:1012A000C01C86420BD2FFF7E6FDFFF7ECFD2F20B6
:1012B000FFF794FDFFF76CFE01E0FFF7B7FDF1BD0E
:1012C0007CB5002000900025294804682B4806685A
:1012D00001A8FFF7B4FEC0B2002805D06A4621007D
:1012E0000198FFF7E2FE01250098FFF70AFF0028AA
:1012F00000D00125EDB2002D02D03000FFF7A3FF92
:1013000000201F49087073BD80B500202249086085
:10131000002022490860002021490860002021495E
:101320000860002020490860002020490860FFF77D
:101330003FFE01BD80B5FFF7C3FF01BD00E100E046
:1013400080E100E000E200E080E200E0F03A00002E
:10135000441301400413014000100140762A00208C
:1013600048130140081301400410014008100140D7
:101370006C2A00200415014040150140682A002015
:10138000772A0020742A0020752A0020482A00208D
:10139000FC260020FFFF7F00401101404411014066
:1013A000481101404C11014000110140041101405D
:1013B000BFF34F8FDFF8C804006810F4E060DFF877
:1013C000C4140843DFF8B8140860BFF34F8F00BFA0
:1013D000FDE7DFF8B404DFF8B4140860704780B5A7
:1013E00000F026F9002807D0DFF8A4040068C0F355
:1013F0000420DFF8A014086000F042F9002804D0AF
:10140000DFF89404DFF89414086000F04DF9002828
:1014100007D0DFF88C040068C0F34230DFF8841492
:10142000086000F065F9002807D0DFF87C04006848
:1014300030F08070DFF87014086000F06DF900285B
:101440000BD00020DFF8641408600020DFF860147F
:1014500008600020DFF85C14086000F081F90028C3
:1014600003D00320DFF85014086000F08DF9002845
:101470000FD00520DFF8441408600120DFF8401485
:1014800008600020DFF83C1408603F20DFF83814C3
:10149000086000F08DF9002865D0DFF8300400689E
:1014A000DFF82C140860DFF82C040068DFF828143B
:1014B0000860DFF828040068DFF824140860DFF80B
:1014C00024040068DFF820140860DFF820040068B6
:1014D000DFF81C140860DFF81C040068DFF818143B
:1014E0000860DFF818040068DFF814140860DFF8FB
:1014F00014040068DFF810140860DFF810040068B6
:10150000DFF80C140860DFF80C040068DFF808143A
:101510000860DFF808040068DFF804140860DFF8EA
:1015200004040068DFF800140860DFF800040068B5
:10153000DFF8FC130860DFF8FC030068DFF8F8133D
:101540000860DFF8F8030068DFF8F4130860DFF8DC
:10155000F4030068DFF8F0130860DFF8F0030068B8
:10156000DFF8EC13086000F037F9002807D0DFF847
:10157000E403006810F04F00DFF8DC13086000F0AF
:101580004FF9002809D0DFF8D4030068C00704D55C
:101590007FF00100DFF8C413086000F065F900284F
:1015A00007D0DFF8BC03006850F48060DFF8B013A8
:1015B0000860DFF8B003006850F47000DFF8A4138F
:1015C0000860BFF34F8FBFF36F8FDFF89C03006895
:1015D000002804D4DFF894030068002825D50120F2
:1015E000DFF88C130860DFF88C0300680028FAD05D
:1015F0001520DFF874130860DFF87803006800280E
:10160000FAD01520DFF864130860DFF8680300687B
:101610000028FAD00020DFF858130860DFF85403E0
:1016200000680028FAD0FFF7C3FEFFF7D2FE01BD25
:10163000DFF844030078C0B206281FD1DFF83C036E
:10164000007810F00F0F19D1DFF83403007810F094
:10165000F000302801D1012011E0DFF824030078E8
:1016600010F0F000402801D1012008E0C4480078C3
:1016700010F0F000502801D1012000E00020704758
:10168000BD480078C0B206280CD1BC48007810F0E4
:101690000F0F07D1BA48007810F0F000302801D1C0
:1016A000012000E000207047B3480078C0B206284F
:1016B0001CD1B248007810F00F0F17D1B048007855
:1016C00010F0F000302801D1012010E0AC48007883
:1016D00010F0F000402801D1012008E0A84800786F
:1016E00010F0F000502801D1012000E000207047E8
:1016F000A1480078C0B206280CD1A048007810F0AC
:101700000F0F07D19E48007810F0F000302801D16B
:10171000012000E00020704797480078C0B20628FA
:101720001CD19648007810F00F0F17D1944800781C
:1017300010F0F000302801D1012010E0904800782E
:1017400010F0F000402801D1012008E08C4800781A
:1017500010F0F000502801D1012000E00020704777
:1017600085480078C0B206280CD18448007810F073
:101770000F0F07D18248007810F0F000302801D117
:10178000012000E0002070477B480078C0B20628A6
:101790000CD17A48007810F00F0F07D17848007804
:1017A00010F0F000302801D1012000E00020704747
:1017B00071480078C0B206280CD17048007810F04B
:1017C0000F0F07D16E48007810F0F000502801D1BB
:1017D000012000E00020704767480078C0B206286A
:1017E0001CD16648007810F00F0F17D164480078BC
:1017F00010F0F000302801D1012010E0604800789E
:1018000010F0F000402801D1012008E05C48007889
:1018100010F0F000502801D1012000E000207047B6
:1018200055480078C0B206281CD15448007810F002
:101830000F0F17D15248007810F0F000302801D176
:10184000012010E04E48007810F0F000402801D14F
:10185000012008E04A48007810F0F000502801D13B
:10186000012000E00020704746480068062805D1A6
:1018700045480068062801D1012000E0002070479B
:101880000CED00E00400FA050090D00344000020B5
:1018900024030010403501400DF0ADBA74C007407C
:1018A000440200103C050040FCED00E00C0100404B
:1018B0001001004038050040A005004010560040CF
:1018C000885600401856004014560040040400108A
:1018D00020C500400804001024C500400C0400107E
:1018E00028C50040100400102CC50040140400104E
:1018F00030C500401804001034C500401C0400101E
:1019000040C500402004001044C5004024040010DD
:1019100048C50040280400104CC500402C040010AD
:1019200050C500403004001054C50040340400107D
:1019300060C500403804001064C500403C0400103D
:1019400068C50040400400106CC50040440400100D
:1019500070C5004058020010E40E00400004004032
:101960003C17004088ED00E0001200100412001047
:1019700004E5014000E40140E00F00F0E40F00F056
:10198000E80F00F03001001034010010012110F0C8
:101990001F029140DFF8F42440B2400942F82010C1
:1019A0007047012110F01F029140DFF8E42440B29B
:1019B000400942F82010704740B2002809D549017B
:1019C000DFF8D02440B210F00F00801800F8041C9B
:1019D00004E04901DFF8C02440B28154704710F0A0
:1019E0006040B0F1005F01D1012000E00020C0B2F2
:1019F0007047000B40B2704780B5C9B240B2FFF7E4
:101A0000DBFF01BD10B50400200040B2FFF7C9FFA5
:101A1000200040B2FFF7BAFF10BD0122C9B20A5040
:101A2000704781B0002209B20A5009B208580090EC
:101A3000009801B0704709B20858002801D0012071
:101A400000E00020C0B27047C0F804137047C0F82F
:101A5000081370470721C0F800157047C0F8081533
:101A6000C0F80C25C0F810357047C0F82415704731
:101A7000C0F84415C0F848257047C0F83415C0F8C0
:101A800038257047D2B2002A01D1002200E001229D
:101A9000C9B2012904D002D3032907D003D307E038
:101AA00052F0020204E052F0040201E052F0060299
:101AB000C0F854257047C9B2C0F8C015704701215D
:101AC000C0F8501570470021C0F85015704701212B
:101AD000C0F8401570470021C0F8401570475FF00E
:101AE000A040704771B581B00C0015001E0001A820
:101AF000FFF7F5FFE4B2EDB254EA4501F6B251EA60
:101B00008602069952EA0122079952EA0141019A96
:101B100010EB8200C0F8001773BD00B583B0002140
:101B2000019100210091002301220121FFF7DAFF3A
:101B300007BD00B583B000220192002200920B0085
:101B4000DBB200220021FFF7CDFF07BD01B56846DB
:101B5000FFF7C5FF0121009A914000F00BF801BD8D
:101B600001B56846FFF7BBFF0121009A914000F0E4
:101B700004F801BDC0F808157047C0F80C1570478F
:101B80002DE9F04383B005000E0017009846DFF8FA
:101B90000C032979242202FB0104207F002801D0B4
:101BA000082095E0D5F80090DFF8F402297950F884
:101BB0002110286800F088F9002801D0112087E062
:101BC0002760C4F80480307B022803DA3078FFF7FE
:101BD000C7FF02E03078FFF7B9FF00200190002036
:101BE00000900023002201213078FFF77BFF7078FE
:101BF000FF2807D077783800FFF7B2FF3800FFF7EB
:101C00008CFF01E05FF0FF37B078FF2806D096F830
:101C1000028001214046FFF78CFF01E05FF0FF38B2
:101C20009E482979242202FB0100B17880F8201017
:101C3000F078FF281AD03079002803D0F078FFF729
:101C40008FFF02E0F078FFF781FFF078FFF765FF84
:101C500092482979242202FB0100F178C1778F484C
:101C60002979242202FB01003179817743463A0029
:101C700031784846FFF7F2FEB1684846FFF7F5FEB7
:101C8000727B317B4846FFF7FDFEB1794846FFF78E
:101C900012FF2068002803D040214846FFF7D4FEF9
:101CA0004846FFF7D7FE206800280CD02868FFF7C9
:101CB000A0FE717940B2FFF79FFE2868FFF799FEFA
:101CC00040B2FFF79FFE00206077012020770020C0
:101CD000BDE8FE8310B50400E07FFF2809D0A07F97
:101CE000002803D0E07FFFF73BFF02E0E07FFFF733
:101CF0002DFF0020607700202072616814F1080039
:101D00002268904710BD80B5C9B2002903D1402197
:101D1000FFF79DFE02E04021FFF796FE01BD38B5BA
:101D200004000D00E80703D52000FFF7C8FE02E01D
:101D30002000FFF7C8FEA80703D52000FFF7C7FE65
:101D400002E02000FFF7C7FE31BDF8B505000C002A
:101D500016001F003068002804D03068FFF73FFEEF
:101D6000002807D0B068002808D0B068FFF737FE19
:101D7000002803D10020607710203AE072683168B3
:101D80002800FFF775FEF268B1682800FFF775FEBE
:101D90004FF48C712800FFF744FE39002800FFF74C
:101DA000BEFF380703D410212800FFF736FE206855
:101DB000002814D14FF48C712800FFF73CFE002856
:101DC000F8D0E07FFF2813D0A07F002803D0E07F69
:101DD000FFF7C6FE0CE0E07FFFF7B8FE08E0B808AA
:101DE00010F0010090F00101C9B22800FFF78BFF4D
:101DF0000020F2BDF8B504000D0016002748217937
:101E0000242202FB01070020787F002801D0112046
:101E100020E03868002804D016F0140F01D101200A
:101E2000787795E80F0017F10C0C8CE80F00F87F1D
:101E3000FF2809D0B87F002803D0F87FFFF786FE7F
:101E400002E0F87FFFF78CFE33002A00390020689B
:101E5000FFF77BFFF2BD38B504000D004FF48C7125
:101E60002000FFF7E8FD002807D04FF48C71200018
:101E7000FFF7D7FD2800FFF72DFF31BD80B50749DB
:101E80000848FFF7E8FF01BD0000000000E100E0A6
:101E900080E200E018ED00E000E400E0DC29002032
:101EA000B83B00000030004080B50548006880471E
:101EB00001BD0449884201D1014800E0002070477B
:101EC000602A00200020004070B50C00FFF7F1FFF1
:101ED0000500002D13D000260020FEF7A9FE28796A
:101EE000002801D0012602E02C600120287100208A
:101EF000FEF7A2FEF6B2002E01D0112000E0002075
:101F000070BDFEE780B58268531C83600368D154BE
:101F100081684268914201D300F0FAF901BDF8B539
:101F200004000D0016000027D8070CD4002D1DD08A
:101F3000280000F00BFA070018E06D1C7F1CC9B2E6
:101F40002000FFF7DFFF2978C9B20029F5D1B74299
:101F50001BD2002E19D0761E20212000FFF7D2FFC1
:101F6000F5E7761E20212000FFF7CCFFB74201D213
:101F7000002EF6D12978C9B2002906D06D1C7F1C2D
:101F8000C9B22000FFF7BEFFF4E7F1BD2DE9F84F1D
:101F900004000D0016009A46AB46012702E0BBFB89
:101FA000F6FB7F1CB345FAD2574500D25746DDF801
:101FB0002890DDF82C805FEAC8701AD4B9F1000FC0
:101FC00017D05FEA887005D5BAF1000F02D15FF033
:101FD000300B09E05FF0200B06E0B9F1010959462A
:101FE000C9B22000FFF78EFFB9F1000F01D04F45B5
:101FF000F3D35FF0010B03E0BAF1010A06FB0BFB20
:10200000BAF1020FF8D2B5FBFBF0B042F6D2B5FB45
:10201000FBF00BFB10550F49415C2000FFF772FFEE
:10202000BBFBF6FBBBF1000FF1D15FEAC8700ED528
:10203000B9F1000F06D10AE0B9F101092021200011
:10204000FFF760FFB9F1000F01D04F45F4D3BDE8B1
:10205000F18F00005C3A00002DE9FC4704000D0000
:1020600016001F00002D01D5684200E028005FF037
:10207000010803E090FBF6F018F10108B042F9DA2C
:10208000B84500D2B846DDF828A0DDF82C90BAF1AA
:10209000000F06D0002D02D45FEA497001D5BAF1D5
:1020A000010A5FEA897001D5002F11D05FEAC9707B
:1020B0000ED4BAF1000F06D10AE0BAF1010A2021CC
:1020C0002000FFF71FFFBAF1000F01D0D045F4D375
:1020D000002D05D56D422D212000FFF713FF06E0EE
:1020E0005FEA497003D52B212000FFF70BFF19F0A1
:1020F0000300022810D1002F0ED1BAF1000F06D133
:102100000AE0BAF1010A30212000FFF7FBFEBAF124
:10211000000F01D0D045F4D3CDF80490CDF800A045
:102120003B00320029002000FFF730FFBDE8F387B5
:10213000F0B583B004000D001600002D00F0E7801C
:1021400029786D1CC9B2002900F0DB80C9B22529AD
:1021500040F0CF80002001272978C9B20A002B2A3D
:102160000CD02D2A02D0302A04D00BE050F0010010
:102170006D1C08E050F002006D1C04E050F00400FB
:102180006D1C00E00027002FE6D1002206E06D1C48
:102190000A23C9B2B1F1300703FB0272C9B22A297E
:1021A00009D1316831603168096833681B1D3360BB
:1021B0008A186D1C05E02978C9B2B1F130030A2BE9
:1021C000E5D300232978C9B22E290DD16D1C05E075
:1021D0006D1C0A27C9B2303907FB03132978C9B22D
:1021E000B1F130070A2FF3D3297801E06D1C29786B
:1021F000C9B26C29FAD0C9B26829F7D0C9B2252969
:1022000070D0582939D063290CD0642917D0692996
:1022100015D070294CD073293ED075291ED078294D
:102220002BD064E030683060306807683068001D8B
:1022300030603900C9B22000FFF764FE57E0316812
:10224000316031680F683168091D3160019000927A
:102250000A2239002000FFF7FFFE48E031683160B4
:1022600031680F683168091D3160019000920A22BF
:1022700039002000FFF78AFE39E0316831603168AB
:102280000F683168091D31600190009210223900F9
:102290002000FFF77BFE2AE0316831603168096871
:1022A00033681B1D336003002000FFF738FE1EE07B
:1022B00030683060306807683068001D3060302159
:1022C0002000FFF71FFE78212000FFF71BFE0020F3
:1022D0000190082000900823102239002000FFF709
:1022E00055FE04E025212000FFF70CFEFFE76D1CE2
:1022F00003E0C9B22000FFF705FE287800287FF42C
:102300001FAF207B002802D0200000F001F8F7BDAD
:1023100010B50400A068002806D0A26821682069D2
:10232000636998470020A06010BD0CB480B50029F7
:1023300007D0054A1268009202AA00926A46FFF787
:10234000F7FE01BC5DF80CFBA83B000000F10103A7
:10235000810704D010F8011B89B18107FAD1026806
:10236000B2F10131914311F0803F04BF50F8042FC6
:10237000F6E710F8011B11B110F8011BFBE7C01ABA
:102380007047FEE780B500B200F019F80068012838
:1023900001D1012000E00020C0B202BD10B582B022
:1023A0000400200000B200F00AF8002101602000C3
:1023B00000B200F004F800680090009813BD00B26D
:1023C00000F1804010F5C0407047DFF8E012096866
:1023D00008407047DFF8D81251F82000C0F30420FD
:1023E0007047DFF8CC1251F82000000C10F0030009
:1023F00070475FF0A040704711B581B00C0001A894
:10240000FFF7F7FF019910EB8101D1F8001731F4C4
:102410004031019A10EB8202C2F80017019910EBCB
:102420008101D1F80017E4B251EA0441019A10EB9E
:102430008200C0F8001713BD01B56846FFF7D9FF49
:10244000009910EB8100D0F80007000C10F0030099
:1024500002BDD0F810057047F8B504000D00160055
:102460006846DFF850120A680260270007E06846F5
:1024700050F82700FFF7EDFF3060361D7F1C28194C
:102480008742F4D3F1BDC20810F00700012313FA0C
:1024900000F0515C0840704710B4C20810F007000B
:1024A000535C012414FA00F01843505410BC7047D8
:1024B000DFF80412401890F930007047DFF8F81187
:1024C00051F8200070472DE9F04385B0002568469B
:1024D000002101604FF480760127002412E03000D3
:1024E00000B2FFF74FFF002809D03800FFF76DFF5B
:1024F000002804D0300000B2FFF750FF3D437F00BA
:10250000361D641C082CEAD34FF4BE70FFF73AFF67
:1025100000280AD04FF4BE70FFF740FF55F0004589
:102520006A4601210020FFF797FF28061BD00127EC
:10253000002416E02F4212D02000FFF74BFF0600C8
:102540002000FFF74EFF80462000FFF7B7FF020094
:102550001000002803D04146C9B2300090477F00E8
:10256000641C082CE6D3002D40F19C80002503A8B4
:1025700000210160002005E05FF0FF3102AA42F86F
:102580002010401C0028F7D0002500240DE0022177
:10259000C9B23000FFF730FF6D1C4046002803D061
:1025A0003900C9B23000C047641C042C49D24248EB
:1025B000201890F85070FFB237F0C0063E4820183F
:1025C00090F9500010F1010FEED002A93000FFF792
:1025D0005AFF0028E8D0FFB2BF093000FFF768FFBC
:1025E00040B2FFF76BFF80464046002802D1FFB2A1
:1025F000032FD9D1FFB2032F03D103A93000FFF776
:102600004BFF3000FFF718FF814669463000FFF7A7
:102610003AFF002804D05FFA89F9B9F1020F06D019
:102620000028C1D15FFA89F9B9F1030FBCD1FFB21B
:10263000032FB2D15FFA89F9B9F1020FA7D10321B3
:10264000A6E7EDB2002D29D0012401AA0121002026
:10265000FFF702FF002000E0401C002808D101A97C
:1026600051F820106A4652F820209142F4D00024FC
:10267000E4B2002C01D0002510E000200CE001A9FC
:1026800051F820106A4642F8201003A951F8201092
:1026900002AA42F82010401C0028F0D0EDB2002D14
:1026A0007FF472AF05B0BDE8F08300000463004022
:1026B00010650040B03B0000402900201FB50024F9
:1026C0000091D2B2019202930699039100226946C9
:1026D000001DFFF78FFB0400200004B010BD0100B7
:1026E000481E002906D04FF47A710A00511E002AB4
:1026F000FBD1F4E7704701208E49087070471FB581
:102700008D480FC86C4684E80F001D208DF803002B
:102710001C208DF8020004208DF8010003208DF8A4
:1027200000005FF00070029000208DF80C00002087
:102730008DF80D000023814A6946814800F02EF98A
:10274000002803D07F4A832100F068F91FBD00B53F
:1027500083B07D490988ADF806108DF80700002088
:10276000ADF804000020734908700220009001AB0E
:1027700002220DF106017248FFF7A0FF002803D0E6
:10278000704A962100F04AF900E020BF69480078BD
:102790000028FAD09DF805000EBDE0B502A96B4AED
:1027A00013680B608DF8090001A80021016000206A
:1027B0000020002100205F4908700420009001AB38
:1027C000042202A95E48FFF779FF002803D05D4A82
:1027D000B62100F023F900E020BF56480078002819
:1027E000FAD09DF806009DF807100902081800B2FB
:1027F0000EBD10B584B001AA554B1C6814608DF84D
:1028000005008DF8061002A800210160002049494A
:1028100008700320009002AB032201A94848FFF78B
:102820004DFF002803D0474AD02100F0F7F800E020
:1028300020BF404800780028FAD01FBD80B5522143
:102840001F20FFF7D6FF42F21070FFF748FF414903
:1028500041480088000450F00300FDF7D4FE01BD9C
:1028600080B52D20FFF773FF50F00201C9B22D2073
:10287000FFF7BFFF4FF47A70FFF731FF2D20FFF70E
:1028800066FFC0B20200354933480088000450F0AA
:102890000300FDF7BEFE01BD80B50E20FFF77DFFF2
:1028A00000B202BD80B51020FFF777FF00B202BD75
:1028B00080B51220FFF771FF00B202BD38B54FF4AA
:1028C00000410020FDF7B4FC002804D01D4A4FF45D
:1028D000957100F0A3F800F0B4F8FFF710FF20495D
:1028E0001D480088000450F00300FDF78CFEFFF740
:1028F000A5FFFFF7B5FFFDF7C3FE0028FBD1FFF7EB
:10290000CBFF0400FFF7CEFF0500FFF7D1FF00B2B9
:1029100000902DB22B0024B2220012490E480088EC
:10292000000450F00300FDF784FEFDF7A9FE002827
:10293000FBD1E4E7782A00203C3A0000F7260000AB
:102940002C3A0000B8330000020C0000A03B00004D
:10295000A43B00009C3A0000C00000205439000055
:10296000203800001C3A000000B585B00A0001784C
:102970008DF800104168019181688DF80810C168D8
:10298000039100698DF81000204850F82210684625
:102990001F4B53F82220904705B000BDF0B585B01D
:1029A00006000C0015003778194840F827501748E2
:1029B00040F82730002017480FC8EC468CE80F007D
:1029C00020788DF8000060788DF80100A0788DF8EF
:1029D0000200E0788DF8030020798DF80500607919
:1029E0008DF80600A0680290207B8DF80C00607BBB
:1029F0008DF80D00002D01D0074A00E000223B00B9
:102A00006946301DFFF7BCF805B0F0BD3C2A002038
:102A1000302A00204C3A00006929000000B583B03C
:102A2000029000910192034871466A4600F018F83E
:102A300003B000BD014000007047FEE70121417274
:102A4000704780B55FF0FF3000F07AF8042103484A
:102A5000FDF77DFF0148FFF7F1FF01BD00000020F9
:102A600070B584B004000D00160072B6FDF795FF36
:102A7000FDF706FE0028FBD1200044F20101401AB8
:102A80000CD0401E25D1338872681C491C48008830
:102A9000000450F00100FDF7C3FD23E0B06800F032
:102AA00089F8029531680191716800910300B2685C
:102AB000144913480088000450F00100FDF7C3FDDD
:102AC00011490F480088000450F00100FDF79BFDFC
:102AD00008E02A000D490A480088000450F001006F
:102AE000FDF797FD0A480068C00700D500BE320018
:102AF0002900200000F088F87FBD00BF28370000C3
:102B0000C0000020E4340000403900000838000014
:102B1000F0ED00E080B5002805D0214951F0010119
:102B200040225043884701BD10B50400002C06D058
:102B30004FF47A70FFF7EEFF641E002CF8D110BD41
:102B400080B500F07CF901BDF8B50C001500002D32
:102B50001DD0002603272A003119002000F03AF981
:102B600086192D1A00280DD10E48007800280ED0A5
:102B70000120FFF7D9FF7F1E002F03D10020094954
:102B8000087004E0012007490870002DE3D1F1BD71
:102B900080B5054A00924023044A00F05FF901BD68
:102BA000003B0000792A0020492B00009C290020CE
:102BB0007047704780B500F005F8002801D10F4834
:102BC000FFE702BD10B40E490E4A00E01A00914220
:102BD00010D2531ADB10022493FBF4F311EBC3035E
:102BE0001C68A042F2D3844202D213F10801EEE73E
:102BF000586800E0002010BC70470000083A000050
:102C0000A0320000B833000089B001238DF80030F5
:102C10009DF800301B4B18601A4B596019498A60A7
:102C200044F20101401A0ED0401E1DD11548C26069
:102C30001448C0680088134988611248C068406819
:102C40001049C86110E00F4802610E4800698068B1
:102C50000C4948610B48006900680A4988610948C5
:102C6000006940680749C86101A8064991EC080B52
:102C700080EC080B72B69DF800000028FBD162B60C
:102C800009B07047002A002010B5DFF8BC410220CF
:102C9000206102206061DFF8B401A061DFF8B001BB
:102CA000E0614FF4007020620020A06200206062AA
:102CB0000020E062DFF89401A064DFF89801E0648E
:102CC000102020650020A065002060650020E065E0
:102CD0003FA1E01D00F032F9DFF87C11200000F088
:102CE0002DF92020A07110BD2DE9F04704000D0042
:102CF00016000027D4F80C802069804504D2B0EB80
:102D00000800B0F1010905E0A168B1EB0801401825
:102D1000B0F10109A068B0EB0800814502D3A068BA
:102D2000B0EB0809B14500D3B146606818EB000A62
:102D30004A4629005046FDF7E9FF19EB070719EB52
:102D40000505B6EB090619EB0808A068804501D116
:102D50005FF00008C4F80C80002ECDD13800BDE82B
:102D6000F0872DE9F84304000D001600E768A0681D
:102D7000B0EB07094E450AD2606817EB0008320035
:102D800029004046FDF7C2FFF019E06012E0C84696
:102D900060683F18424629003800FDF7B7FFB6EBE0
:102DA000090819EB0501656842462800FDF7AEFFEA
:102DB000C4F80C80BDE8F1830169C2688A4204D37B
:102DC0008068401E801A081801E0881A401E70476B
:102DD0005254540070B50C001500DFF86C10182226
:102DE00002FB001010F118067069002803D00228B9
:102DF0001BD00DD320E03000FFF7DEFFA84201D248
:102E0000002504E02A0021003000FFF7AAFF14E0AB
:102E10003000FFF7D1FFA84201D20500FFE72A00EA
:102E200021003000FFF79DFF07E02A00210030005D
:102E3000FFF75AFF050000E00025280070BD80B5AF
:102E4000FFF722FF01BD0000C8280020CC3A000097
:102E5000FC240020202A0020983B0000F0B595B00B
:102E60000C0015001E002000FDF712FE09A83249D3
:102E700091EC060B80EC060B09950A961A980E90B9
:102E800000252B00082201A92000FDF766FE082579
:102E900003980490BDF80800ADF81400BDF80A00CE
:102EA000ADF8160000208DF81900019810F003000D
:102EB00001281AD10198860A0198C0F3C2008DF842
:102EC00018000198C0F383172B00BA000FA9200047
:102ED000FDF743FE15EB870509A8009004AB3A0007
:102EE0000FA9300000F09DF820E0019810F00300D9
:102EF00002281BD10198860D0198C0F3C2008DF8FD
:102F00001800082E01D2370000E008272B003A00F5
:102F100007A92000FDF721FE7D19F61B09AB04AAC5
:102F2000390007A800F0FCF8002EEAD12000FDF7D8
:102F3000B5FD15B0F0BD00BF383800005FEA000CE9
:102F4000830706D011F8013B00F8013BB3B18307BA
:102F5000F8D10A68B2F1013323EA020313F0803F8B
:102F600002BF40F8042B51F8042FF3E711F8013B9E
:102F700000F8013B13B111F8013BF9E760467047D7
:102F8000704738B505000C00E888002807D0944841
:102F90000090EB88934A94492000FFF7C6F9287AFD
:102FA00005281FD0687A00280BD0297AA888FDF759
:102FB000A5F98E49C0B251F8202083A12000FFF767
:102FC000B4F929682000FFF7DBFF0021A888FDF78E
:102FD00085F903008648297A50F821208549200088
:102FE000FFF7A3F931BD10B50C00017A05290DD00A
:102FF000407A002805D07D48026873A12000FFF7C1
:1030000094F972A12000FFF790F906E0D2B2002AED
:1030100003D06EA12000FFF788F92000FFF778F9B0
:1030200010BD2DE9F04385B00700884691461C008D
:103030000C9D2E7B0020287329002000FFF7A1FFA4
:10304000B9F1000F0CD0B9F1020F15D00DD3B9F1C1
:10305000040F26D019D3B9F1060F43D030D356E070
:1030600039002800FFF761F951E0D8F80020390055
:103070002800FFF75AF94AE0D8F80430D8F80020C1
:1030800039002800FFF751F941E0D8F80800009016
:10309000D8F80430D8F8002039002800FFF745F9A7
:1030A00035E0D8F80C000190D8F808000090D8F866
:1030B0000430D8F8002039002800FFF736F926E060
:1030C000D8F810000290D8F80C000190D8F8080049
:1030D0000090D8F80430D8F8002039002800FFF715
:1030E00024F914E0D8F814000390D8F810000290E6
:1030F000D8F80C000190D8F808000090D8F80430F7
:10310000D8F8002039002800FFF70FF9FFE7002268
:1031100029002000FFF767FF2E7305B0BDE8F0839C
:103120002DE9F04704000D0016001F00092D49D2BB
:1031300097F80C800020387339003000FFF721FF2A
:103140005FF0000905E022A13800FFF7EEF819F161
:103150000109B9F1080F08D2A945F4D219F80420E1
:1031600025493800FFF7E1F8F1E71AA13800FFF729
:10317000DCF85FF0000905E017A13800FFF7D5F88B
:1031800019F10109B9F1080F15D2A945F4D219F8BE
:1031900004A05FFA8AFA504600F030F8002802D006
:1031A0005FFA8AFA01E05FF02E0A52460BA138005E
:1031B000FFF7BBF8E4E7012239003000FFF713FF07
:1031C00087F80C80BDE8F087257300000D0A000029
:1031D000202020007C00000020000000256300006B
:1031E000283B0000383B0000503800002000002041
:1031F0000C000020B43A0000703B000010B50446FB
:10320000A4F120005F280BD3204600F00BF838B95A
:10321000204600F011F8401E8041C043C00F10BD91
:10322000012010BD10B50446012000F00FF8204623
:10323000BDE8104000F016B810B50446012000F0BB
:1032400005F82046BDE8104000F017B810B5044658
:10325000DFF80C00C046C04650F8240010BD000046
:1032600050000020A0F161011A2901D2012070470D
:1032700041381A288041C00F7047A0F121010F2961
:1032800021BFA0F13A010729A0F15B01062904D36F
:103290007B3804288041C00F704701207047FEE74B
:1032A00000000000C03A0000010000008836000065
:1032B0000200000084350000030000009039000087
:1032C00004000000A439000005000000B839000027
:1032D0000600000068380000070000008038000089
:1032E0000800000098380000090000004437000082
:1032F0000A000000B03800000B000000C8380000D1
:103300000C000000CC3900000D000000E039000086
:103310000E0000006C3A00000F000000F4390000BD
:1033200010000000E0380000110000007C3A0000AE
:1033300080000000A8350000810000006037000018
:10334000820000007C37000083000000A8360000E7
:1033500084000000CC350000850000000C35000022
:1033600086000000F838000090000000C836000019
:1033700091000000E83600009200000010390000C3
:10338000008200000837000001820000983700002A
:1033900002820000B437000000840000F035000015
:1033A00001840000B83400000284000034350000BD
:1033B0000384000014360000463A5C4941525F77AE
:1033C0006F726B73706163655C6E726635325C6ED2
:1033D0005246355F53444B5F31352E302E305F619E
:1033E0003533363431615C6578616D706C65735C62
:1033F0007065726970686572616C5C7370695C6D30
:1034000061696E2E6300000019E050F8041BCB07C1
:1034100044BFA9F101035918121F0023042A41F8DF
:10342000043BF9D25FEA827C0B4604D54FF0000CD6
:10343000A1F800C09B1CD10744BF0021197050F8AF
:10344000042B002AE1D1704730B5016842688468D6
:10345000091801EB5203D20748BF4C440C30994283
:1034600000D130BD11F9012B11F8015B002A04F8DD
:10347000015B02D5521CF9D1F1E7521EF4D5EEE7FB
:103480006839000000000003AC3B000000000303AB
:10349000783B000000000000B43B0000000000008A
:1034A000803B000000000000883B0000000000009E
:1034B000903B0000000000004E52465F4552524FC4
:1034C000525F424C455F495053505F4348414E4E16
:1034D000454C5F414C52454144595F45584953540E
:1034E000530000004552524F52202575205B257332
:1034F0005D2061742025733A25750D0A50432061C3
:10350000743A203078253038780000004E52465FFB
:103510004552524F525F4D4F44554C455F414C52BE
:10352000454144595F494E495449414C495A4544E3
:10353000000000004E52465F4552524F525F424CCF
:10354000455F495053505F4C494E4B5F444953438C
:103550004F4E4E45435445440000000010B5074906
:1035600079441831064C7C44163404E00A68081D7E
:10357000511888470146A142F8D110BDE000000073
:10358000040100004E52465F4552524F525F534F66
:1035900046544445564943455F4E4F545F454E415E
:1035A000424C4544000000004E52465F4552524F87
:1035B000525F4D4F44554C455F4E4F545F494E4905
:1035C0005449414C495A4544000000004E52465F60
:1035D0004552524F525F4D555445585F434F4E44EC
:1035E0005F494E49545F4641494C45440000000044
:1035F0004E52465F4552524F525F424C455F4950D2
:1036000053505F52585F504B545F5452554E434194
:10361000544544004E52465F4552524F525F424C11
:10362000455F495053505F504545525F52454A45AA
:1036300043544544000000004EF68851CEF200018C
:10364000086840F470000860BFF34F8FBFF36F8FBE
:103650004FF00070E1EE100A70470000ADFDFFFF73
:103660001C000000BC000020A4090000D82000209D
:1036700000000000D5FDFFFF840500008000000071
:1036800000000020FEE700004E52465F4552524FB8
:10369000525F5356435F48414E444C45525F4D493B
:1036A0005353494E470000004E52465F4552524F19
:1036B000525F4D555445585F554E4C4F434B5F46F6
:1036C00041494C45440000004E52465F4552524F1E
:1036D000525F4150495F4E4F545F494D504C454DEC
:1036E000454E5445440000004E52465F4552524FED
:1036F000525F464541545552455F4E4F545F454ECB
:1037000041424C45440000004E52465F4552524FE4
:10371000525F4452565F5457495F4552525F4F566D
:10372000455252554E000000415353455254494FA3
:103730004E204641494C45442061742025733A256A
:10374000750000004E52465F4552524F525F494E3F
:1037500056414C49445F4C454E47544800000000D8
:103760004E52465F4552524F525F4D555445585F39
:10377000494E49545F4641494C4544004E52465FCC
:103780004552524F525F4D555445585F4C4F434B35
:103790005F4641494C4544004E52465F4552524FA8
:1037A000525F4452565F5457495F4552525F414EF3
:1037B00041434B004E52465F4552524F525F445276
:1037C000565F5457495F4552525F444E41434B0048
:1037D0000120C046002801D0FFF7C0FE0020C046EF
:1037E000C046FFF76BF800F000F800F001B8FEE704
:1037F0000746384600F002F8FBE7FEE72021090300
:1038000026311820ABBEF9E7554E4B4E4F574E2090
:103810004641554C5420617420307825303858008A
:10382000535049206578616D706C652073746172C6
:103830007465642E0000000000000000000000001D
:103840000000000000000000000000000000000078
:1038500025734C6F67732064726F707065642028E5
:1038600025642925730D0A004E52465F4552524F7A
:10387000525F4E4F545F535550504F525445440081
:103880004E52465F4552524F525F494E56414C4947
:10389000445F504152414D004E52465F4552524F97
:1038A000525F494E56414C49445F53544154450080
:1038B0004E52465F4552524F525F494E56414C4917
:1038C000445F464C414753004E52465F4552524F6B
:1038D000525F494E56414C49445F444154410000B7
:1038E0004E52465F4552524F525F494E56414C49E7
:1038F000445F4144445200004E52465F4552524F8D
:10390000525F53544F524147455F46554C4C00005F
:103910004E52465F4552524F525F494F5F50454E9F
:1039200044494E4700000000582A0020502A002039
:10393000582A002008280020BC00002018000000A1
:10394000456E64206F66206572726F7220726570BA
:103950006F7274005265672032442061667465722C
:10396000203D20256400000062616C6C6F632E6C4A
:103970006F675F6D656D706F6F6C00004261636BA8
:10398000656E647320666C75736865640000000082
:103990004E52465F4552524F525F494E5445524E29
:1039A000414C00004E52465F4552524F525F4E4FBF
:1039B0005F4D454D000000004E52465F4552524F4C
:1039C000525F4E4F545F464F554E44004E52465F35
:1039D0004552524F525F444154415F53495A45004A
:1039E0004E52465F4552524F525F54494D454F55D6
:1039F000540000004E52465F4552524F525F464FB0
:103A00005242494444454E00556E6B6E6F776E20AE
:103A10006572726F7220636F6465000078202564A0
:103A20002C792025642C7A202564000000000000F9
:103A3000003000400000000001000000FFFFFFFF19
:103A400007FF00000000004000000000FFFFFFFF34
:103A50000007FF000000004000000000303132335A
:103A60003435363738394142434445464E52465F35
:103A70004552524F525F4E554C4C00004E52465FDD
:103A80004552524F525F42555359000001488047FA
:103A900001480047DF130000D93A0000536F6674F5
:103AA0002052657365740A00912B0000B32B00004F
:103AB000B12B00003C25733E2025733A2000000006
:103AC0004E52465F53554343455353005465726D00
:103AD000696E616C00000000C046C046FFF7ACFD97
:103AE000FFF776FE0000000000000000000000006C
:103AF0000338FDD8704700000000000000000000FF
:103B00000338FDD8704700006572726F72000000C4
:103B10007761726E696E6700696E666F0000000003
:103B200064656275670000001B5B306D000000007B
:103B30001B5B313B33306D001B5B313B33316D0020
:103B40001B5B313B33326D001B5B313B33336D000C
:103B50001B5B313B33346D001B5B313B33356D00F8
:103B60001B5B313B33366D001B5B313B33376D00E4
:103B700020253032780000004750494F544500005E
:103B80005350494D000000005541525400000000C0
:103B900055415254450000005345474745520000E7
:103BA0000B0000000A0000000000000061707000BF
:103BB00000000050505253007D1E0000FEE7FEE75B
:103BC000FEE7FEE7FEE7FEE7FEE7FEE7FEE7FEE7CD
:103BD000FEE7FEE7FEE7FEE7FEE7FEE7FEE7FEE7BD
:103BE000FEE7FEE7FEE7FEE7FEE7FEE7FEE7FEE7AD
:103BF000FEE7FEE7FEE7FEE7FEE7FEE701A83AF292
:103C00000031083B0000103B0000183B0000203B47
:103C10000000283B0000303B0000383B0000403BE8
:103C20000000483B0000503B0000583B0000603B58
:0C3C30000000683BFD000290D0038C00F7
:0400000500003AD9E4
:00000001FF
